:042000007DEF3DF043
:107AE400800E9B6E700ED36E100ED26E900EB56E1D
:107AF400D2BE1200FDD700EE01F00E0EEE6AE806CB
:107B0400FDE1000EF86E000146EF3FF0136E13C066
:107B140001F00FC002F010C003F011C004F012C055
:107B240005F01200000E896E1F0E0F015B6F000E30
:107B3400C26E000EC16E0E0EC06E2F0E926E12003B
:107B4400000E0F6E000E106E000E116E000E126EFF
:107B5400000E88EC3DF0000E0C6E000E0B6E010E54
:107B64000A6E000E0E6E000E0D6E1200000E896E6F
:107B7400000E0F015B6F2F0E926E000E8A6E000EC8
:107B84000F015C6F000E936E000E8B6E000E0F01E2
:107B94005D6FB00E946E810ED56E000E806E000E79
:107BA400816E000E826E1200500E176E140E186E47
:107BB400025001C019F01A6A1926000E1A22035045
:107BC4001926000E1A2204501926000E1A220550F6
:107BD4001926000E1A221750192618501A22191E97
:107BE4001A1E194A1A2A200E19240F6E4E0E1A2034
:107BF400106E000E126E060E116E14EC3EF00FC0E5
:107C040006F010C007F006C01BF007C01CF01B50A4
:107C14001C10D8B41200180EE82EFED71B06D8A0EC
:107C24001C06F5D7000E146E12AE06D0116C121E8F
:107C3400D8B0122A010E146E10AE06D00F6C101EAE
:107C4400D8B0102A010E141A000E166E000E156E0E
:107C540011501210D8B41CD0010E136E04D0D89059
:107C640011361236132A12AEFAD7D89015361636B4
:107C740011500F5C12501058D8A005D011500F5E4F
:107C84001250105A1580D89012321132132EEDD79B
:107C94001450D8B404D0156C161ED8B0162A15C0CA
:107CA4000FF016C010F012008A8E090E0F6E690EC6
:107CB400E82EFED70F2EFCD700F001C010F01050B4
:107CC400D8B405D0180EE82EFED71006F8D78A9E31
:107CD4008A8C090E0F6E690EE82EFED70F2EFCD784
:107CE40000F002C011F01150D8B405D0180EE82EDF
:107CF400FED71106F8D78A9C8A8A090E0F6E690E80
:107D0400E82EFED70F2EFCD700F003C012F012505D
:107D1400D8B405D0180EE82EFED71206F8D78A9AE2
:107D24008A88090E0F6E690EE82EFED70F2EFCD737
:107D340000F004C013F01350D8B405D0180EE82E88
:107D4400FED71306F8D78A988A84090E0F6E690E37
:107D5400E82EFED70F2EFCD700F005C014F0145007
:107D6400D8B405D0180EE82EFED71406F8D78A9496
:107D740012000EC016F084B670D0010E0B6E0C50BB
:107D8400D8A42CD00A50D8B429D00D2A140E0D181A
:107D9400D8A463D0000E0D6E010E0C6E000E0A6E98
:107DA400000E146E040E146401D057D0145016182B
:107DB400D8B405D0000E106E000E0F6E03D0000E66
:107DC400106E0F681450010D010EF324D96E000ECD
:107DD400F420DA6E0FC0DFFF142AE4D70A50D8B4B7
:107DE4003CD00D2A140E0D18D8A419D0000E0D6E17
:107DF400000E0C6E000E0A6E1606000E136E040EB4
:107E0400136401D02AD01350010D010EF324D96E4E
:107E1400000EF420DA6E000EDF6E132AF0D7000E87
:107E2400156E040E156401D018D015501618D8B468
:107E340005D0000E126E000E116E03D0000E126EED
:107E440011681550010D010EF324D96E000EF420B3
:107E5400DA6E11C0DFFF152AE4D784A613D00B50C5
:107E6400D8B40AD00C50D8B407D0162A050E161868
:107E7400D8A402D0000E166E010E0A6E000E0D6E0E
:107E8400000E0B6E1650120072EC3DF0B8EC3DF093
:107E940094EC3DF0A2EC3DF0A2D084B605D00C5099
:107EA400D8A402D0010E086E84A6A0D00850D8B47D
:107EB4009DD00C50D8A49AD0000E086E092A090E41
:107EC4000918D8A46FD0000E096E6CD0000E0F6E86
:107ED400000E106E000E116E000E126E000E88EC75
:107EE4003DF084D0FF0E0F6EFF0E106EFF0E116E6C
:107EF400FF0E126EFF0E88EC3DF078D0000E0F6E70
:107F0400FF0E106EFF0E116E000E126E000E88EC46
:107F14003DF06CD0FF0E0F6EFF0E106EFF0E116E53
:107F2400000E126E000E88EC3DF060D0000E0F6E55
:107F3400000E106EFF0E116EFF0E126EC80E88EC4E
:107F44003DF054D0C80E0F6E000E106E000E116E70
:107F5400000E126EC80E88EC3DF048D0FF0E0F6E76
:107F6400FF0E106EFF0E116EFF0E126E000E88ECE7
:107F74003DF03CD0000E0F6EFF0E106EFF0E116E22
:107F8400FF0E126EFF0E88EC3DF030D0000E0F6E27
:107F9400FF0E106EFF0E116E000E126EFF0E88ECB7
:107FA4003DF024D00950000AD8B490D7010AD8B4BF
:107FB40099D7030AD8B4A2D7010AD8B4ABD7070A11
:107FC400D8B4B4D7010AD8B4BDD7030AD8B4C6D735
:107FD400010AD8B4CFD70F0AD8B4D8D707D00E50D7
:107FE400000AD8B403D0010AD8B457D756EC3EF0EF
:0C7FF400D6EC3DF0BBEC3EF00E6EF1D779
:020000040020DA
:08000000FFFFFFFFFFFFFFFF00
:020000040030CA
:0E00000021081F3EFF5181FF0FC00FE00F408F
:00000001FF
