:0620000080EF3DF012002C
:107AEA00800E9B6E700ED36E100ED26E900EB56E17
:107AFA00D2BE1200FDD700EE01F00E0EEE6AE806C5
:107B0A00FDE1000EF86E000143EF3FF0136E13C063
:107B1A0001F00FC002F010C003F011C004F012C04F
:107B2A0005F01200000E896E1F0E0F015B6F000E2A
:107B3A00C26E000EC16E0E0EC06E2F0E926E120035
:107B4A00000E0F6E000E106E000E116E000E126EF9
:107B5A00000E8BEC3DF0000E0B6E000E0A6E010E4D
:107B6A00086E000E0E6E000E0D6E1200000E896E6B
:107B7A00000E0F015B6F2F0E926E000E8A6E000EC2
:107B8A000F015C6F000E936E000E8B6E000E0F01DC
:107B9A005D6FB00E946E810ED56E000E806E000E73
:107BAA00816E000E826E1200500E176E140E186E41
:107BBA00025001C019F01A6A1926000E1A2203503F
:107BCA001926000E1A2204501926000E1A220550F0
:107BDA001926000E1A221750192618501A22191E91
:107BEA001A1E194A1A2A200E19240F6E4E0E1A202E
:107BFA00106E000E126E060E116E17EC3EF00FC0DC
:107C0A0006F010C007F006C01BF007C01CF01B509E
:107C1A001C10D8B41200180EE82EFED71B06D8A0E6
:107C2A001C06F5D7000E146E12AE06D0116C121E89
:107C3A00D8B0122A010E146E10AE06D00F6C101EA8
:107C4A00D8B0102A010E141A000E166E000E156E08
:107C5A0011501210D8B41CD0010E136E04D0D89053
:107C6A0011361236132A12AEFAD7D89015361636AE
:107C7A0011500F5C12501058D8A005D011500F5E49
:107C8A001250105A1580D89012321132132EEDD795
:107C9A001450D8B404D0156C161ED8B0162A15C0C4
:107CAA000FF016C010F012008A8E090E0F6E690EC0
:107CBA00E82EFED70F2EFCD700F001C010F01050AE
:107CCA00D8B405D0180EE82EFED71006F8D78A9E2B
:107CDA008A8C090E0F6E690EE82EFED70F2EFCD77E
:107CEA0000F002C011F01150D8B405D0180EE82ED9
:107CFA00FED71106F8D78A9C8A8A090E0F6E690E7A
:107D0A00E82EFED70F2EFCD700F003C012F0125057
:107D1A00D8B405D0180EE82EFED71206F8D78A9ADC
:107D2A008A88090E0F6E690EE82EFED70F2EFCD731
:107D3A0000F004C013F01350D8B405D0180EE82E82
:107D4A00FED71306F8D78A988A84090E0F6E690E31
:107D5A00E82EFED70F2EFCD700F005C014F0145001
:107D6A00D8B405D0180EE82EFED71406F8D78A9490
:107D7A0012000EC01AF084B66AD0010E0A6E0B50B9
:107D8A00D8A42CD00850D8B429D00D2A140E0D1816
:107D9A00D8A45DD0000E0D6E010E0B6E000E086E9B
:107DAA00000E186E040E186401D051D018501A181B
:107DBA00D8B405D0000E156E000E146E03D0000E56
:107DCA00156E14681850010D010EF324D96E000EB9
:107DDA00F420DA6E14C0DFFF182AE4D70850D8B4AA
:107DEA0036D00D2A140E0D18D8A413D0000E0D6E1D
:107DFA00000E0B6E000E086E1A06000E0F6E000EB5
:107E0A00106E000E116E000E126E000E8BEC3DF01D
:107E1A001ED0000E196E040E196401D018D0195024
:107E2A001A18D8B405D0000E176E000E166E03D0BD
:107E3A00000E176E16681950010D010EF324D96E43
:107E4A00000EF420DA6E16C0DFFF192AE4D784A6E2
:107E5A0013D00A50D8B40AD00B50D8B407D01A2A73
:107E6A00050E1A18D8A402D0000E1A6E010E086E5A
:107E7A00000E0D6E000E0A6E1A50120075EC3DF0DF
:107E8A00BBEC3DF097EC3DF0A5EC3DF0A5D002EC43
:107E9A0010F0A9D084B605D00B50D8A402D0010E98
:107EAA00096E84A6A0D00950D8B49DD00B50D8A48E
:107EBA009AD0000E096E0C2A090E0C18D8A46FD09D
:107ECA00000E0C6E6CD0000E0F6E000E106E000EBF
:107EDA00116E000E126E000E8BEC3DF084D0FF0E78
:107EEA000F6EFF0E106EFF0E116EFF0E126EFF0E5A
:107EFA008BEC3DF078D0000E0F6EFF0E106EFF0E69
:107F0A00116E000E126E000E8BEC3DF06CD0FF0E5F
:107F1A000F6EFF0E106EFF0E116E000E126E000E27
:107F2A008BEC3DF060D0000E0F6E000E106EFF0E4F
:107F3A00116EFF0E126EC80E8BEC3DF054D0C80EB7
:107F4A000F6E000E106E000E116E000E126EC80E2D
:107F5A008BEC3DF048D0FF0E0F6EFF0E106EFF0E39
:107F6A00116EFF0E126E000E8BEC3DF03CD0000E2F
:107F7A000F6EFF0E106EFF0E116EFF0E126EFF0EC9
:107F8A008BEC3DF030D0000E0F6EFF0E106EFF0E20
:107F9A00116E000E126EFF0E8BEC3DF024D00C50C9
:107FAA00000AD8B490D7010AD8B499D7030AD8B42A
:107FBA00A2D7010AD8B4ABD7070AD8B4B4D7010AF2
:107FCA00D8B4BDD7030AD8B4C6D7010AD8B4CFD714
:107FDA000F0AD8B4D8D707D00E50000AD8B457D74A
:107FEA00010AD8B457D759EC3EF0D9EC3DF0BEECB3
:067FFA003EF00E6EF1D70F
:020000040020DA
:08000000FFFFFFFFFFFFFFFF00
:020000040030CA
:0E00000021081F3EFF5181FF0FC00FE00F408F
:00000001FF
