:0620000050EF3EF012005B
:0120080001D6
:107C7200800E9B6E700ED36E100ED26E900EB56E8D
:107C82001200000E896E1F0E0F015B6F000EC26E96
:107C9200000EC16E0E0EC06E2F0E926E1200080EF6
:107CA200F66E200EF76E000EF86E0900F5CF1AF090
:107CB20000EE0FF00B0EEE6AE806FDE1000EF86E24
:107CC200000164EF3EF039EC3EF07FEC3EF042EC16
:107CD2003EF0000E196E000E186E03D002EC10F08A
:107CE20004D01950000AD8B4F9D71DEC3FF09DEC2E
:107CF2003EF082EC3FF0196E8450F3D7000E896E8D
:107D0200000E0F015B6F2F0E926E000E8A6E000E38
:107D12000F015C6F000E936E000E8B6E000E0F0152
:107D22005D6FB00E946E810ED56E000E806E000EE9
:107D3200816E000E826E1200500E096E140E0A6ED3
:107D420010500FC00BF00C6A0B26000E0C221150C3
:107D52000B26000E0C2212500B26000E0C22135082
:107D62000B26000E0C2209500B260A500C220B1E69
:107D72000C1E0B4A0C2A200E0B24016E4E0E0C20F8
:107D8200026E000E046E060E036EDBEC3EF001C0C6
:107D920014F002C015F014C00DF015C00EF00D5015
:107DA2000E10D8B41200180EE82EFED70D06D8A079
:107DB2000E06F5D7000E066E04AE06D0036C041E46
:107DC200D8B0042A010E066E02AE06D0016C021E65
:107DD200D8B0022A010E061A000E086E000E076EB7
:107DE20003500410D8B41CD0010E056E04D0D890F4
:107DF20003360436052A04AEFAD7D8900736083679
:107E02000350015C04500258D8A005D00350015E13
:107E12000450025A0780D89004320332052EEDD75F
:107E22000650D8B404D0076C081ED8B0082A07C080
:107E320001F008C002F012008A8E090E016E690E6E
:107E4200E82EFED7012EFCD700F00FC002F0025040
:107E5200D8B405D0180EE82EFED70206F8D78A9EAF
:107E62008A8C090E016E690EE82EFED7012EFCD710
:107E720000F010C003F00350D8B405D0180EE82E5D
:107E8200FED70306F8D78A9C8A8A090E016E690E0C
:107E9200E82EFED7012EFCD700F011C004F00450EA
:107EA200D8B405D0180EE82EFED70406F8D78A9A61
:107EB2008A88090E016E690EE82EFED7012EFCD7C4
:107EC20000F012C005F00550D8B405D0180EE82E07
:107ED200FED70506F8D78A988A84090E016E690EC4
:107EE200E82EFED7012EFCD700F013C006F0065094
:107EF200D8B405D0180EE82EFED70606F8D78A9415
:107F0200120019C005F084B663D0010E166E175028
:107F1200D8A420D01A50D8B41DD0182A140E18187C
:107F2200D8A456D0000E186E010E176E000E1A6EEF
:107F3200000E036E040E036401D04AD00350010DFB
:107F42000F0EF324D96E000EF420DA6E000EDF6EEF
:107F5200032AF0D71A50D8B43BD0182A140E181896
:107F6200D8A418D0000E186E000E176E000E1A6EEE
:107F7200000E046E040E046401D02AD00450010DD8
:107F82000F0EF324D96E000EF420DA6E000EDF6EAF
:107F9200042AF0D7000E066E040E066401D018D033
:107FA20006500518D8B405D0000E026E000E016E00
:107FB20003D0000E026E01680650010D0F0EF3246D
:107FC200D96E000EF420DA6E01C0DFFF062AE4D774
:107FD20084A613D01604D8A40AD01750D8B407D058
:107FE200052A050E0518D8A402D0000E056E010E52
:0E7FF2001A6E000E186E000E166E055012006C
:020000040020DA
:08000000FFFFFFFFFFFFFFFF00
:020000040030CA
:0E00000021081F3EFF5181FF0FC00FE00F408F
:00000001FF
