:04200000F5EF3CF0CC
:1079D400800E9B6E700ED36E100ED26E900EB56E2E
:1079E400D2BE1200FDD700EE01F0100EEE6AE806DA
:1079F400FDE1000EF86E00017EEF3DF0156E15C03E
:107A040001F011C002F012C003F013C004F014C05E
:107A140005F01200000E896E1F0E0F015B6F000E41
:107A2400C26E000EC16E0E0EC06E2F0E926E12004C
:107A3400116EC280C250C30BC26EC2501110C26E0E
:107A440000F000F000F000F0C282C2B2FED7C29093
:107A5400C45012000EC011F0FF0E126EFF0E136E12
:107A6400FF0E146EFF0E00EC3DF00D500E260E2896
:107A7400D8B403D00E50D8A41200FF0E0D02F35058
:107A84000D6E1200000E116E000E126E000E136EBB
:107A9400000E146E000E00EC3DF0000E0B6E000E96
:107AA4000A6E000E096E010E086E000E106E000EB6
:107AB4000F6E050E0E6E050E0D6E1200000E896E11
:107AC400000E0F015B6F2F0E926E000E8A6E000E79
:107AD4000F015C6F000E936E000E8B6E000E0F0193
:107AE4005D6FB00E946E810ED56E000E806E000E2A
:107AF400816E000E826E1200EAEC3CF060EC3DF008
:107B04000CEC3DF044EC3DF00B50D8B40AD013D04B
:107B140025EC3EF010D05EEC3FF00DD02CEC3DF0A7
:107B24000AD01050000AD8B4F3D7010AD8B4F3D756
:107B3400030AD8B4F3D774EC3EF0A5EC3DF0D9ECCD
:107B44003EF0106EE1D7500E196E140E1A6E0250EC
:107B540001C01BF01C6A1B26000E1C2203501B26AE
:107B6400000E1C2204501B26000E1C2205501B264E
:107B7400000E1C2219501B261A501C221B1E1C1EF0
:107B84001B4A1C2A200E1B24116E4E0E1C20126E42
:107B9400000E146E060E136EE3EC3DF011C006F0F9
:107BA40012C007F006C01DF007C01EF01D501E10C5
:107BB400D8B41200180EE82EFED71D06D8A01E0653
:107BC400F5D7000E166E14AE06D0136C141ED8B082
:107BD400142A010E166E12AE06D0116C121ED8B005
:107BE400122A010E161A000E186E000E176E13508C
:107BF4001410D8B41CD0010E156E04D0D8901336CE
:107C04001436152A14AEFAD7D890173618361350EE
:107C1400115C14501258D8A005D01350115E1450A2
:107C2400125A1780D89014321332152EEDD71650ED
:107C3400D8B404D0176C181ED8B0182A17C011F085
:107C440018C012F01200000E1AEC3DF0016E040E82
:107C54001AEC3DF0026E080E1AEC3DF0036E0C0EA9
:107C64001AEC3DF0046E100E1AEC3DF0056E000E99
:107C7400146E000E136E0150D8B40BD00250D8B459
:107C840008D00450D8B405D00550D8B402D0010EA1
:107C9400136E0350135CD8B01200000E156E040E60
:107CA400156401D01CD01550010D010EF324D96EBA
:107CB400000EF420DA6EDE50145CD8B00ED0020E42
:107CC4001518D8B40AD01550010D010EF324D96E3D
:107CD400000EF420DA6E14C0DFFF152AE0D714C0BA
:107CE40003F012008A8E090E116E690EE82EFED77B
:107CF400112EFCD700F001C012F01250D8B405D0F8
:107D0400180EE82EFED71206F8D78A9E8A8C090E22
:107D1400116E690EE82EFED7112EFCD700F002C0BA
:107D240013F01350D8B405D0180EE82EFED713065E
:107D3400F8D78A9C8A8A090E116E690EE82EFED73E
:107D4400112EFCD700F003C014F01450D8B405D0A1
:107D5400180EE82EFED71406F8D78A9A8A88090ED8
:107D6400116E690EE82EFED7112EFCD700F004C068
:107D740015F01550D8B405D0180EE82EFED7150608
:107D8400F8D78A988A84090E116E690EE82EFED7F8
:107D9400112EFCD700F005C016F01650D8B405D04B
:107DA400180EE82EFED71606F8D78A94120010C0D3
:107DB4001CF084B66AD0010E0A6E0B50D8A42CD0E5
:107DC4000850D8B429D00F2A140E0F18D8A45DD0A7
:107DD400000E0F6E010E0B6E000E086E000E1A6E72
:107DE400040E1A6401D051D01A501C18D8B405D00E
:107DF400000E176E000E166E03D0000E176E166876
:107E04001A50010D010EF324D96E000EF420DA6E1F
:107E140016C0DFFF1A2AE4D70850D8B436D00F2A88
:107E2400140E0F18D8A413D0000E0F6E000E0B6E94
:107E3400000E086E1C06000E116E000E126E000E6F
:107E4400136E000E146E000E00EC3DF01ED0000EFA
:107E54001B6E040E1B6401D018D01B501C18D8B420
:107E640005D0000E196E000E186E03D0000E196EA8
:107E740018681B50010D010EF324D96E000EF42076
:107E8400DA6E18C0DFFF1B2AE4D784A613D00A5089
:107E9400D8B40AD00B50D8B407D01C2A050E1C182D
:107EA400D8A402D0000E1C6E010E086E000E0F6ED8
:107EB400000E0A6E1C50120084B605D00B50D8A4D4
:107EC40002D0010E096E84A612000950D8B4120023
:107ED4000B50D8A41200000E096E0C2A090E0C18BF
:107EE400D8A46FD0000E0C6E6CD0000E116E000E74
:107EF400126E000E136E000E146E000E00EC3DF0B8
:107F04001200FF0E116EFF0E126EFF0E136EFF0EA7
:107F1400146EFF0E00EC3DF01200000E116EFF0E09
:107F2400126EFF0E136E000E146E000E00EC3DF088
:107F34001200FF0E116EFF0E126EFF0E136E000E76
:107F4400146E000E00EC3DF01200000E116E000ED7
:107F5400126EFF0E136EFF0E146EC80E00EC3DF091
:107F64001200C80E116E000E126E000E136E000E7B
:107F7400146EC80E00EC3DF01200FF0E116EFF0EE1
:107F8400126EFF0E136EFF0E146E000E00EC3DF029
:107F94001200000E116EFF0E126EFF0E136EFF0E16
:107FA400146EFF0E00EC3DF01200000E116EFF0E79
:107FB400126EFF0E136E000E146EFF0E00EC3DF0F9
:107FC40012000C50000AD8B490D7010AD8B499D73B
:107FD400030AD8B4A2D7010AD8B4ABD7070AD8B4D5
:107FE400B4D7010AD8B4BDD7030AD8B4C6D7010A96
:0C7FF400D8B4CFD70F0AD8A41200D7D7FA
:020000040020DA
:08000000FFFFFFFFFFFFFFFF00
:020000040030CA
:0E00000021081F3EFF5181FF0FC00FE00F408F
:00000001FF
