:042000001BEF3DF0A5
:107A2000800E9B6E700ED36E100ED26E900EB56EE1
:107A3000D2BE1200FDD700EE01F0100EEE6AE8068D
:107A4000FDE1000EF86E000192EF3DF0156E15C0DD
:107A500001F011C002F012C003F013C004F014C012
:107A600005F01200000E896E1F0E0F015B6F000EF5
:107A7000C26E000EC16E0E0EC06E2F0E926E120000
:107A80000EC011F0FF0E126EFF0E136EFF0E146E7D
:107A9000FF0E26EC3DF00D500E260E28D8B403D074
:107AA0000E50D8A41200FF0E0D02F3500D6E1200FE
:107AB000000E116E000E126E000E136E000E146E8C
:107AC000000E26EC3DF0000E0B6E000E0A6E000E4E
:107AD000096E010E086E000E106E000E0F6E050E80
:107AE0000E6E050E0D6E1200000E896E000E0F0157
:107AF0005B6F2F0E926E000E8A6E000E0F015C6F90
:107B0000000E936E000E8B6E000E0F015D6FB00EB7
:107B1000946E810ED56E000E806E000E816E000E8A
:107B2000826E120010EC3DF074EC3DF032EC3DF052
:107B300058EC3DF00B50D8B40AD013D0B9EC3DF05E
:107B400010D05EEC3FF00DD040EC3DF00AD010506C
:107B5000000AD8B4F3D7010AD8B4F3D7030AD8B4CB
:107B6000F3D774EC3EF0F4EC3DF0D9EC3EF0106E3F
:107B7000E1D7000E136E000E126E0150D8B40BD078
:107B80000250D8B408D00450D8B405D00550D8B4A9
:107B900002D0010E126E0350125CD8B01200000E1B
:107BA000146E040E146401D01CD01450010D010E8B
:107BB000F324D96E000EF420DA6EDE50135CD8B0D8
:107BC0000ED0020E1418D8B40AD01450010D010EB4
:107BD000F324D96E000EF420DA6E13C0DFFF142AEE
:107BE000E0D713C003F01200500E196E140E1A6E77
:107BF000025001C01BF01C6A1B26000E1C22035001
:107C00001B26000E1C2204501B26000E1C220550B1
:107C10001B26000E1C2219501B261A501C221B1E4C
:107C20001C1E1B4A1C2A200E1B24116E4E0E1C20EB
:107C3000126E000E146E060E136E32EC3EF011C082
:107C400006F012C007F006C01DF007C01EF01D5060
:107C50001E10D8B41200180EE82EFED71D06D8A0AC
:107C60001E06F5D7000E166E14AE06D0136C141E49
:107C7000D8B0142A010E166E12AE06D0116C121E68
:107C8000D8B0122A010E161A000E186E000E176ECA
:107C900013501410D8B41CD0010E156E04D0D89017
:107CA00013361436152A14AEFAD7D890173618366C
:107CB0001350115C14501258D8A005D01350115E07
:107CC0001450125A1780D89014321332152EEDD753
:107CD0001650D8B404D0176C181ED8B0182A17C084
:107CE00011F018C012F012008A8E090E116E690E82
:107CF000E82EFED7112EFCD700F001C012F0125072
:107D0000D8B405D0180EE82EFED71206F8D78A9EF2
:107D10008A8C090E116E690EE82EFED7112EFCD743
:107D200000F002C013F01350D8B405D0180EE82E9E
:107D3000FED71306F8D78A9C8A8A090E116E690E3F
:107D4000E82EFED7112EFCD700F003C014F014501B
:107D5000D8B405D0180EE82EFED71406F8D78A9AA4
:107D60008A88090E116E690EE82EFED7112EFCD7F7
:107D700000F004C015F01550D8B405D0180EE82E48
:107D8000FED71506F8D78A988A84090E116E690EF7
:107D9000E82EFED7112EFCD700F005C016F01650C5
:107DA000D8B405D0180EE82EFED71606F8D78A9458
:107DB000120010C01CF084B66AD0010E0A6E0B507F
:107DC000D8A42CD00850D8B429D00F2A140E0F18DC
:107DD000D8A45DD0000E0F6E010E0B6E000E086E63
:107DE000000E1A6E040E1A6401D051D01A501C18DD
:107DF000D8B405D0000E176E000E166E03D0000E1C
:107E0000176E16681A50010D010EF324D96E000E7C
:107E1000F420DA6E16C0DFFF1A2AE4D70850D8B46F
:107E200036D00F2A140E0F18D8A413D0000E0F6EE0
:107E3000000E0B6E000E086E1C06000E116E000E7A
:107E4000126E000E136E000E146E000E26EC3DF046
:107E50001ED0000E1B6E040E1B6401D018D01B50E8
:107E60001C18D8B405D0000E196E000E186E03D081
:107E7000000E196E18681B50010D010EF324D96E07
:107E8000000EF420DA6E18C0DFFF1B2AE4D784A6A8
:107E900013D00A50D8B40AD00B50D8B407D01C2A3B
:107EA000050E1C18D8A402D0000E1C6E010E086E20
:107EB000000E0F6E000E0A6E1C50120084B605D024
:107EC0000B50D8A402D0010E096E84A612000950EE
:107ED000D8B412000B50D8A41200000E096E0C2A60
:107EE000090E0C18D8A46FD0000E0C6E6CD0000ECA
:107EF000116E000E126E000E136E000E146E000E48
:107F000026EC3DF01200FF0E116EFF0E126EFF0EFA
:107F1000136EFF0E146EFF0E26EC3DF01200000EE5
:107F2000116EFF0E126EFF0E136E000E146E000E19
:107F300026EC3DF01200FF0E116EFF0E126EFF0ECA
:107F4000136E000E146E000E26EC3DF01200000EB3
:107F5000116E000E126EFF0E136EFF0E146EC80E21
:107F600026EC3DF01200C80E116E000E126E000ECF
:107F7000136E000E146EC80E26EC3DF01200FF0EBC
:107F8000116EFF0E126EFF0E136EFF0E146E000EBA
:107F900026EC3DF01200000E116EFF0E126EFF0E69
:107FA000136EFF0E146EFF0E26EC3DF01200000E55
:107FB000116EFF0E126EFF0E136E000E146EFF0E8A
:107FC00026EC3DF012000C50000AD8B490D7010AFC
:107FD000D8B499D7030AD8B4A2D7010AD8B4ABD77A
:107FE000070AD8B4B4D7010AD8B4BDD7030AD8B4A5
:107FF000C6D7010AD8B4CFD70F0AD8A41200D7D752
:020000040020DA
:08000000FFFFFFFFFFFFFFFF00
:020000040030CA
:0E00000021081F3EFF5181FF0FC00FE00F408F
:00000001FF
