:042000001DEF3DF0A3
:05200800FFFFFFFFFFD8
:1079C000800E9B6E700ED36E100ED26E900EB56E42
:1079D000D2BE1200FDD7186E18C001F014C002F01C
:1079E00015C003F016C004F017C005F01200000E19
:1079F000896E1F0E0F015B6F000EC26E000EC16E0E
:107A00000E0EC06E2F0E926E120011C014F0FF0EFB
:107A1000156EFF0E166EFF0E176EFF0EEBEC3CF0B0
:107A2000105011261128D8B403D01150D8A4120038
:107A3000FF0E1002F350106E1200080EF66E200EAC
:107A4000F76E000EF86E00EE22F010EE05F0090061
:107A5000F5CFEEFFE550E150FAE100EE01F0130E34
:107A6000EE6AE806FDE1000EF86E00019AEF3DF0C7
:107A7000000E896E000E0F015B6F2F0E926E000ECE
:107A80008A6E000E0F015C6F000E936E000E8B6EFF
:107A9000000E0F015D6FB00E946E810ED56E000E5C
:107AA000806E000E816E000E826E1200165017104E
:107AB000D8B4120089BC03D0186A182A01D0186AF9
:107AC000183A1846184689501818BF0B1818896EAE
:107AD00014C019F015C01AF019501A10D8B404D0F7
:107AE0001906D8A01A06F8D71606D8A01706DED7AA
:107AF000000E146E000E156E000E166E000E176E40
:107B0000000EEBEC3CF0000E0E6E000E0D6E000E43
:107B10000C6E010E0B6E010E0A6E000E136E000E3F
:107B2000126E050E116E050E106E000E076E000E21
:107B3000066E1200E0EC3CF038EC3DF0F7EC3CF067
:107B400078EC3DF00E50D8B413D01CD0000E146E5B
:107B5000000E156E000E166E000E176E000EEBEC8A
:107B60003CF010D0B8EC3EF00DD005EC3DF00AD062
:107B70001350000AD8B4EAD7010AD8B4F3D7030ADD
:107B8000D8B4F3D70A50D8B406D00E50D8A403D036
:107B90001350D8B404D053EC3EF0D3EC3DF05AEC83
:107BA0003FF0136ECFD7500E1C6E140E1D6E025098
:107BB00001C01EF01F6A1E26000E1F2203501E2643
:107BC000000E1F2204501E26000E1F2205501E26E6
:107BD000000E1F221C501E261D501F221E1E1F1E7F
:107BE0001E4A1F2A200E1E24146E4E0E1F20156ED4
:107BF000000E176E060E166E11EC3EF014C008F063
:107C000015C009F008C020F009C021F02050211053
:107C1000D8B41200180EE82EFED72006D8A02106F0
:107C2000F5D7000E196E17AE06D0166C171ED8B019
:107C3000172A010E196E15AE06D0146C151ED8B099
:107C4000152A010E191A000E1B6E000E1A6E165020
:107C50001710D8B41CD0010E186E04D0D890163668
:107C60001736182A17AEFAD7D8901A361B36165080
:107C7000145C17501558D8A005D01650145E175034
:107C8000155A1A80D89017321632182EEDD719507F
:107C9000D8B404D01A6C1B1ED8B01B2A1AC014F01A
:107CA0001BC015F012008A8E090E146E690EE82EA4
:107CB000FED7142EFCD700F001C015F01550D8B433
:107CC00005D0180EE82EFED71506F8D78A9E8A8CA6
:107CD000090E146E690EE82EFED7142EFCD700F0A4
:107CE00002C016F01650D8B405D0180EE82EFED7F4
:107CF0001606F8D78A9C8A8A090E146E690EE82E39
:107D0000FED7142EFCD700F003C017F01750D8B4DC
:107D100005D0180EE82EFED71706F8D78A9A8A885B
:107D2000090E146E690EE82EFED7142EFCD700F053
:107D300004C018F01850D8B405D0180EE82EFED79D
:107D40001806F8D78A988A84090E146E690EE82EF0
:107D5000FED7142EFCD700F005C019F01950D8B486
:107D600005D0180EE82EFED71906F8D78A9412000F
:107D700084B605D00E50D8A402D0010E0C6E84A695
:107D800012000C50D8B412000E50D8A41200000EED
:107D90000C6E0F2A090E0F18D8A46FD0000E0F6EAC
:107DA0006CD0000E146E000E156E000E166E000ED6
:107DB000176E000EEBEC3CF01200FF0E146EFF0E7F
:107DC000156EFF0E166EFF0E176EFF0EEBEC3CF0FD
:107DD0001200000E146EFF0E156EFF0E166E000ED2
:107DE000176E000EEBEC3CF01200FF0E146EFF0E4F
:107DF000156EFF0E166E000E176E000EEBEC3CF0CB
:107E00001200000E146E000E156EFF0E166EFF0EA1
:107E1000176EC80EEBEC3CF01200C80E146E000E8C
:107E2000156E000E166E000E176EC80EEBEC3CF0D1
:107E30001200FF0E146EFF0E156EFF0E166EFF0E73
:107E4000176E000EEBEC3CF01200000E146EFF0EED
:107E5000156EFF0E166EFF0E176EFF0EEBEC3CF06C
:107E60001200000E146EFF0E156EFF0E166E000E41
:107E7000176EFF0EEBEC3CF012000F50000AD8B466
:107E800090D7010AD8B499D7030AD8B4A2D7010A67
:107E9000D8B4ABD7070AD8B4B4D7010AD8B4BDD781
:107EA000030AD8B4C6D7010AD8B4CFD70F0AD8A4CA
:107EB0001200D7D713C021F084B68BD0010E0D6EFF
:107EC0000E50D8A436D00B50D8B433D0122A140E8A
:107ED0001218D8A47ED0000E126E010E0E6E000E87
:107EE0000B6E000E156EC80E146E010E176EF40E9A
:107EF000166E56EC3DF0000E1F6E040E1F6401D08E
:107F000068D01F502118D8B405D0000E1C6E000E8A
:107F10001B6E03D0000E1C6E1B681F50010D010E5E
:107F2000F324D96E000EF420DA6E1BC0DFFF1F2A87
:107F3000E4D70B50D8B44DD0122A140E1218D8A47E
:107F40002AD0000E126E000E0E6E000E0B6E010E89
:107F5000156E900E146E010E176EF40E166E56EC22
:107F60003DF02150D8B402D0210602D0040E216E7B
:107F70002150D8A402D0010E01D0000E0A6E000ECE
:107F8000146E000E156E000E166E000E176E000EAB
:107F9000EBEC3CF01ED0000E206E040E206401D0ED
:107FA00018D020502118D8B405D0000E1E6E000E37
:107FB0001D6E03D0000E1E6E1D682050010D010EB7
:107FC000F324D96E000EF420DA6E1DC0DFFF202AE4
:107FD000E4D784A613D00D50D8B40AD00E50D8B42C
:107FE00007D0212A050E2118D8A402D0000E216E38
:107FF000010E0B6E000E126E000E0D6E215012005F
:020000040020DA
:08000000FFFFFFFFFFFFFFFF00
:020000040030CA
:0E00000021081F3EFF5181FF0FC00FE00F408F
:00000001FF
