:04200000FCEF3CF0C5
:05200800FFFFFFFFFFD8
:10795A00800E9B6E700ED36E100ED26E900EB56EA8
:10796A00D2BE1200FDD7186E18C001F014C002F082
:10797A0015C003F016C004F017C005F01200000E7F
:10798A00896E1F0E0F015B6F000EC26E000EC16E74
:10799A000E0EC06E2F0E926E1200146EC280C2506E
:1079AA00C30BC26EC2501410C26E00F000F000F099
:1079BA0000F0C282C2B2FED7C290C450120010C0F8
:1079CA0014F0FF0E156EFF0E166EFF0E176EFF0EE9
:1079DA00B8EC3CF00F5010261028D8B403D0105041
:1079EA00D8A41200FF0E0F02F3500F6E1200080EF9
:1079FA00F66E200EF76E000EF86E00EE22F010EE14
:107A0A0005F00900F5CFEEFFE550E150FAE100EE8E
:107A1A0001F0130EEE6AE806FDE1000EF86E0001B1
:107A2A009DEF3DF0000E896E000E0F015B6F2F0E69
:107A3A00926E000E8A6E000E0F015C6F000E936E3E
:107A4A00000E8B6E000E0F015D6FB00E946E810EEC
:107A5A00D56E000E806E000E816E000E826E1200D0
:107A6A0016501710D8B4120089BC03D0186A182A05
:107A7A0001D0186A183A1846184689501818BF0BC8
:107A8A001818896E14C019F015C01AF019501A1076
:107A9A00D8B404D01906D8A01A06F8D71606D8A062
:107AAA001706DED7000E146E000E156E000E166E47
:107ABA00000E176E000EB8EC3CF0000E0E6E000EB3
:107ACA000D6E000E0C6E010E0B6E000E0A6E000E8D
:107ADA00136E000E126E050E106E050E0F6E000E5E
:107AEA00076E000E066E1200000ED2EC3CF0000883
:107AFA00156E1504016E040ED2EC3CF00008156EEA
:107B0A001504026E080ED2EC3CF00008156E15043E
:107B1A00036E0C0ED2EC3CF00008156E1504046ED0
:107B2A00100ED2EC3CF00008156E1504056E12001A
:107B3A00ADEC3CF017EC3DF0C4EC3CF057EC3DF0FA
:107B4A000E50D8B40AD013D079EC3DF010D05EECC8
:107B5A003FF00DD0E4EC3CF00AD01350000AD8B440
:107B6A00F3D7010AD8B4F3D7030AD8B4F3D70A5023
:107B7A00D8B403D00E50D8B404D04AEC3EF0CAECC4
:107B8A003DF0BEEC3EF0136EDBD7500E1C6E140EA9
:107B9A001D6E025001C01EF01F6A1E26000E1F2213
:107BAA0003501E26000E1F2204501E26000E1F22FE
:107BBA0005501E26000E1F221C501E261D501F2275
:107BCA001E1E1F1E1E4A1F2A200E1E24146E4E0E33
:107BDA001F20156E000E176E060E166E08EC3EF08C
:107BEA0014C008F015C009F008C020F009C021F03F
:107BFA0020502110D8B41200180EE82EFED7200605
:107C0A00D8A02106F5D7000E196E17AE06D0166C4D
:107C1A00171ED8B0172A010E196E15AE06D0146CAD
:107C2A00151ED8B0152A010E191A000E1B6E000E69
:107C3A001A6E16501710D8B41CD0010E186E04D044
:107C4A00D89016361736182A17AEFAD7D8901A3699
:107C5A001B361650145C17501558D8A005D016506C
:107C6A00145E1750155A1A80D89017321632182EE9
:107C7A00EDD71950D8B404D01A6C1B1ED8B01B2AE1
:107C8A001AC014F01BC015F012008A8E090E146E69
:107C9A00690EE82EFED7142EFCD700F0015000081A
:107CAA00146E1404156E1550D8B405D0180EE82EAB
:107CBA00FED71506F8D78A9E8A8C090E146E690EAD
:107CCA00E82EFED7142EFCD700F002500008146EDE
:107CDA001404166E1650D8B405D0180EE82EFED726
:107CEA001606F8D78A9C8A8A090E146E690EE82E3F
:107CFA00FED7142EFCD700F003500008146E1404AB
:107D0A00176E1750D8B405D0180EE82EFED71706EE
:107D1A00F8D78A9A8A88090E146E690EE82EFED759
:107D2A00142EFCD700F004500008146E1404186EC8
:107D3A001850D8B405D0180EE82EFED71806F8D772
:107D4A008A988A84090E146E690EE82EFED7142EBC
:107D5A00FCD700F005500008146E1404196E19506F
:107D6A00D8B405D0180EE82EFED71906F8D78A948B
:107D7A00120013C021F084B685D0010E0D6E0E508C
:107D8A00D8A436D00B50D8B433D0122A140E1218F5
:107D9A00D8A478D0000E126E010E0E6E000E0B6E75
:107DAA00000E156EC80E146E010E176EF40E166EC6
:107DBA0035EC3DF0000E1F6E040E1F6401D062D038
:107DCA001F502118D8B405D0000E1C6E000E1B6E71
:107DDA0003D0000E1C6E1B681F50010D010EF32408
:107DEA00D96E000EF420DA6E1BC0DFFF1F2AE4D71B
:107DFA000B50D8B447D0122A140E1218D8A424D083
:107E0A00000E126E000E0E6E000E0B6E010E156E37
:107E1A00900E146E010E176EF40E166E35EC3DF0D0
:107E2A0021062150D8A402D0010E01D0000E0A6EFC
:107E3A00000E146E000E156E000E166E000E176EF2
:107E4A00000EB8EC3CF01ED0000E206E040E20642A
:107E5A0001D018D020502118D8B405D0000E1E6EBB
:107E6A00000E1D6E03D0000E1E6E1D682050010DFF
:107E7A00010EF324D96E000EF420DA6E1DC0DFFF66
:107E8A00202AE4D784A613D00D50D8B40AD00E50B5
:107E9A00D8B407D0212A050E2118D8A402D0000E82
:107EAA00216E010E0B6E000E126E000E0D6E215029
:107EBA00120084B605D00E50D8A402D0010E0C6E62
:107ECA0084A612000C50D8B412000E50D8A4120086
:107EDA00000E0C6E112A090E1118D8A46FD0000ECC
:107EEA00116E6CD0000E146E000E156E000E166E1A
:107EFA00000E176E000EB8EC3CF01200FF0E146E66
:107F0A00FF0E156EFF0E166EFF0E176EFF0EB8EC03
:107F1A003CF01200000E146EFF0E156EFF0E166E68
:107F2A00000E176E000EB8EC3CF01200FF0E146E35
:107F3A00FF0E156EFF0E166E000E176E000EB8ECD1
:107F4A003CF01200000E146E000E156EFF0E166E37
:107F5A00FF0E176EC80EB8EC3CF01200C80E146E75
:107F6A00000E156E000E166E000E176EC80EB8ECD7
:107F7A003CF01200FF0E146EFF0E156EFF0E166E09
:107F8A00FF0E176E000EB8EC3CF01200000E146ED5
:107F9A00FF0E156EFF0E166EFF0E176EFF0EB8EC73
:107FAA003CF01200000E146EFF0E156EFF0E166ED8
:107FBA00000E176EFF0EB8EC3CF012001150000ACA
:107FCA00D8B490D7010AD8B499D7030AD8B4A2D79B
:107FDA00010AD8B4ABD7070AD8B4B4D7010AD8B4BF
:107FEA00BDD7030AD8B4C6D7010AD8B4CFD70F0A67
:067FFA00D8A41200D7D745
:020000040020DA
:08000000FFFFFFFFFFFFFFFF00
:020000040030CA
:0E00000021081F3EFF5181FF0FC00FE00F408F
:00000001FF
