:04200000E8EF3EF0D7
:052008000A73ACD22AAE
:107D3200800E9B6E700ED36E100ED26E900EB56ECC
:107D42001200000E896E1F0E0F015B6F000EC26ED5
:107D5200000EC16E0E0EC06E2F0E926E120099ECC6
:107D62003EF0FDEC3EF0A2EC3EF0D3EC3EF09BEC9C
:107D72003FF01BEC3FF084B6F8D70EEF00F0F5D7DA
:107D8200016EC280C250C30BC26EC2500110C26EDD
:107D920000F000F000F000F0C282C2B2FED7C29042
:107DA200C4501200000EC1EC3EF00F6E040EC1EC86
:107DB2003EF0106E080EC1EC3EF0116E0C0EC1ECDE
:107DC2003EF0126E100EC1EC3EF0136E1200080E61
:107DD200F66E200EF76E000EF86E00EE0FF010EE4B
:107DE20005F00900F5CFEEFFE550E150FAE1156A22
:107DF200146A0001B0EF3EF0000E896E000E0F0112
:107E02005B6F2F0E926E000E8A6E000E0F015C6F7A
:107E1200000E936E000E8B6E000E0F015D6FB00EA2
:107E2200946E810ED56E000E806E000E816E000E75
:107E3200826E1200500E096E140E0A6E10500FC0A0
:107E42000BF00C6A0B26000E0C2211500B26000EB2
:107E52000C2212500B26000E0C2213500B26000E81
:107E62000C2209500B260A500C220B1E0C1E0B4A28
:107E72000C2A200E0B24016E4E0E0C20026E000EF8
:107E8200046E060E036E59EC3FF001C014F002C0FE
:107E920015F014C00DF015C00EF00D500E10D8B430
:107EA2001200180EE82EFED70D06D8A00E06F5D742
:107EB200000E066E04AE06D0036C041ED8B0042A6F
:107EC200010E066E02AE06D0016C021ED8B0022A66
:107ED200010E061A000E086E000E076E0350041003
:107EE200D8B41CD0010E056E04D0D89003360436E7
:107EF200052A04AEFAD7D890073608360350015C3B
:107F020004500258D8A005D00350015E0450025A12
:107F12000780D89004320332052EEDD70650D8B42C
:107F220004D0076C081ED8B0082A07C001F008C0A8
:107F320002F012008A8E090E016E690EE82EFED73B
:107F4200012EFCD700F00FC002F00250D8B405D0C9
:107F5200180EE82EFED70206F8D78A9E8A8C090EE2
:107F6200016E690EE82EFED7012EFCD700F010C07C
:107F720003F00350D8B405D0180EE82EFED703063E
:107F8200F8D78A9C8A8A090E016E690EE82EFED7FE
:107F9200012EFCD700F011C004F00450D8B405D073
:107FA200180EE82EFED70406F8D78A9A8A88090E98
:107FB200016E690EE82EFED7012EFCD700F012C02A
:107FC20005F00550D8B405D0180EE82EFED70506E8
:107FD200F8D78A988A84090E016E690EE82EFED7B8
:107FE200012EFCD700F013C006F00650D8B405D01D
:0E7FF200180EE82EFED70606F8D78A94120065
:020000040020DA
:08000000FFFFFFFFFFFFFFFF00
:020000040030CA
:0E00000021081F3EFF5181FF0FC00FE00F408F
:00000001FF
